{
  "abi": [
    {
      "inputs": [
        {
          "internalType": "uint256",
          "name": "gnarId",
          "type": "uint256"
        },
        {
          "internalType": "contract IGnarDescriptor",
          "name": "descriptor",
          "type": "address"
        }
      ],
      "name": "generateSeed",
      "outputs": [
        {
          "components": [
            {
              "internalType": "uint48",
              "name": "background",
              "type": "uint48"
            },
            {
              "internalType": "uint48",
              "name": "body",
              "type": "uint48"
            },
            {
              "internalType": "uint48",
              "name": "accessory",
              "type": "uint48"
            },
            {
              "internalType": "uint48",
              "name": "head",
              "type": "uint48"
            },
            {
              "internalType": "uint48",
              "name": "glasses",
              "type": "uint48"
            }
          ],
          "internalType": "struct IGnarSeeder.Seed",
          "name": "",
          "type": "tuple"
        }
      ],
      "stateMutability": "view",
      "type": "function"
    }
  ],
  "bytecode": {
    "object": "0x608060405234801561001057600080fd5b506105f5806100206000396000f3fe608060405234801561001057600080fd5b506004361061002b5760003560e01c8063422e2e9914610030575b600080fd5b61004361003e366004610527565b61009a565b6040516100919190815165ffffffffffff9081168252602080840151821690830152604080840151821690830152606080840151821690830152608092830151169181019190915260a00190565b60405180910390f35b6040805160a0810182526000808252602082018190529181018290526060810182905260808101829052906100d0600143610563565b604080519140602083015281018590526060016040516020818303038152906040528051906020012060001c90506000836001600160a01b0316634531c0a86040518163ffffffff1660e01b8152600401602060405180830381865afa15801561013e573d6000803e3d6000fd5b505050506040513d601f19601f820116820180604052508101906101629190610584565b90506000846001600160a01b031663eba818066040518163ffffffff1660e01b8152600401602060405180830381865afa1580156101a4573d6000803e3d6000fd5b505050506040513d601f19601f820116820180604052508101906101c89190610584565b90506000856001600160a01b0316634daebac26040518163ffffffff1660e01b8152600401602060405180830381865afa15801561020a573d6000803e3d6000fd5b505050506040513d601f19601f8201168201806040525081019061022e9190610584565b90506000866001600160a01b031663cc2aa0916040518163ffffffff1660e01b8152600401602060405180830381865afa158015610270573d6000803e3d6000fd5b505050506040513d601f19601f820116820180604052508101906102949190610584565b90506000876001600160a01b0316634479cef26040518163ffffffff1660e01b8152600401602060405180830381865afa1580156102d6573d6000803e3d6000fd5b505050506040513d601f19601f820116820180604052508101906102fa9190610584565b9050600085116103495760405162461bcd60e51b81526020600482015260156024820152746261636b67726f756e64206973206d697373696e6760581b60448201526064015b60405180910390fd5b6000841161038b5760405162461bcd60e51b815260206004820152600f60248201526e626f6479206973206d697373696e6760881b6044820152606401610340565b600083116103d45760405162461bcd60e51b81526020600482015260166024820152756163636573736f72696573206973206d697373696e6760501b6044820152606401610340565b600082116104165760405162461bcd60e51b815260206004820152600f60248201526e68656164206973206d697373696e6760881b6044820152606401610340565b6000811161045b5760405162461bcd60e51b8152602060048201526012602482015271676c6173736573206973206d697373696e6760701b6044820152606401610340565b6040518060a00160405280868865ffffffffffff1661047a919061059d565b65ffffffffffff16815260200185603089901c65ffffffffffff1661049f919061059d565b65ffffffffffff16815260200184606089901c65ffffffffffff166104c4919061059d565b65ffffffffffff16815260200183609089901c65ffffffffffff166104e9919061059d565b65ffffffffffff1681526020018260c089901c65ffffffffffff1661050e919061059d565b65ffffffffffff16905296505050505050505b92915050565b6000806040838503121561053a57600080fd5b8235915060208301356001600160a01b038116811461055857600080fd5b809150509250929050565b8181038181111561052157634e487b7160e01b600052601160045260246000fd5b60006020828403121561059657600080fd5b5051919050565b6000826105ba57634e487b7160e01b600052601260045260246000fd5b50069056fea264697066735822122043b8e21b54c677b216e435080ef93b98c0686c5c859fa4c5c25704072fa87cd764736f6c63430008140033",
    "linkReferences": {}
  },
  "methodIdentifiers": {
    "generateSeed(uint256,address)": "422e2e99"
  },
  "id": 6
}