{"abi":[{"type":"constructor","inputs":[],"stateMutability":"nonpayable"},{"type":"function","name":"_generateSVGImage","inputs":[{"name":"params","type":"tuple","internalType":"struct MultiPartRLEToSVG.SVGParams","components":[{"name":"parts","type":"bytes[]","internalType":"bytes[]"},{"name":"background","type":"string","internalType":"string"}]}],"outputs":[{"name":"svg","type":"string","internalType":"string"}],"stateMutability":"view"},{"type":"function","name":"accessories","inputs":[{"name":"","type":"uint256","internalType":"uint256"}],"outputs":[{"name":"","type":"bytes","internalType":"bytes"}],"stateMutability":"view"},{"type":"function","name":"accessoryCount","inputs":[],"outputs":[{"name":"","type":"uint256","internalType":"uint256"}],"stateMutability":"view"},{"type":"function","name":"addAccessory","inputs":[{"name":"_accessory","type":"bytes","internalType":"bytes"}],"outputs":[],"stateMutability":"nonpayable"},{"type":"function","name":"addBackground","inputs":[{"name":"_background","type":"string","internalType":"string"}],"outputs":[],"stateMutability":"nonpayable"},{"type":"function","name":"addBody","inputs":[{"name":"_body","type":"bytes","internalType":"bytes"}],"outputs":[],"stateMutability":"nonpayable"},{"type":"function","name":"addColorToPalette","inputs":[{"name":"_paletteIndex","type":"uint8","internalType":"uint8"},{"name":"_color","type":"string","internalType":"string"}],"outputs":[],"stateMutability":"nonpayable"},{"type":"function","name":"addGlasses","inputs":[{"name":"_glasses","type":"bytes","internalType":"bytes"}],"outputs":[],"stateMutability":"nonpayable"},{"type":"function","name":"addHead","inputs":[{"name":"_head","type":"bytes","internalType":"bytes"}],"outputs":[],"stateMutability":"nonpayable"},{"type":"function","name":"addManyAccessories","inputs":[{"name":"_accessories","type":"bytes[]","internalType":"bytes[]"}],"outputs":[],"stateMutability":"nonpayable"},{"type":"function","name":"addManyBackgrounds","inputs":[{"name":"_backgrounds","type":"string[]","internalType":"string[]"}],"outputs":[],"stateMutability":"nonpayable"},{"type":"function","name":"addManyBodies","inputs":[{"name":"_bodies","type":"bytes[]","internalType":"bytes[]"}],"outputs":[],"stateMutability":"nonpayable"},{"type":"function","name":"addManyColorsToPalette","inputs":[{"name":"paletteIndex","type":"uint8","internalType":"uint8"},{"name":"newColors","type":"string[]","internalType":"string[]"}],"outputs":[],"stateMutability":"nonpayable"},{"type":"function","name":"addManyGlasses","inputs":[{"name":"_glasses","type":"bytes[]","internalType":"bytes[]"}],"outputs":[],"stateMutability":"nonpayable"},{"type":"function","name":"addManyHeads","inputs":[{"name":"_heads","type":"bytes[]","internalType":"bytes[]"}],"outputs":[],"stateMutability":"nonpayable"},{"type":"function","name":"arePartsLocked","inputs":[],"outputs":[{"name":"","type":"bool","internalType":"bool"}],"stateMutability":"view"},{"type":"function","name":"backgroundCount","inputs":[],"outputs":[{"name":"","type":"uint256","internalType":"uint256"}],"stateMutability":"view"},{"type":"function","name":"backgrounds","inputs":[{"name":"","type":"uint256","internalType":"uint256"}],"outputs":[{"name":"","type":"string","internalType":"string"}],"stateMutability":"view"},{"type":"function","name":"baseURI","inputs":[],"outputs":[{"name":"","type":"string","internalType":"string"}],"stateMutability":"view"},{"type":"function","name":"bodies","inputs":[{"name":"","type":"uint256","internalType":"uint256"}],"outputs":[{"name":"","type":"bytes","internalType":"bytes"}],"stateMutability":"view"},{"type":"function","name":"bodyCount","inputs":[],"outputs":[{"name":"","type":"uint256","internalType":"uint256"}],"stateMutability":"view"},{"type":"function","name":"dataURI","inputs":[{"name":"tokenId","type":"uint256","internalType":"uint256"},{"name":"seed","type":"tuple","internalType":"struct IGnarSeeder.Seed","components":[{"name":"background","type":"uint48","internalType":"uint48"},{"name":"body","type":"uint48","internalType":"uint48"},{"name":"accessory","type":"uint48","internalType":"uint48"},{"name":"head","type":"uint48","internalType":"uint48"},{"name":"glasses","type":"uint48","internalType":"uint48"}]}],"outputs":[{"name":"","type":"string","internalType":"string"}],"stateMutability":"view"},{"type":"function","name":"generateSVGImage","inputs":[{"name":"seed","type":"tuple","internalType":"struct IGnarSeeder.Seed","components":[{"name":"background","type":"uint48","internalType":"uint48"},{"name":"body","type":"uint48","internalType":"uint48"},{"name":"accessory","type":"uint48","internalType":"uint48"},{"name":"head","type":"uint48","internalType":"uint48"},{"name":"glasses","type":"uint48","internalType":"uint48"}]}],"outputs":[{"name":"","type":"string","internalType":"string"}],"stateMutability":"view"},{"type":"function","name":"genericDataURI","inputs":[{"name":"name","type":"string","internalType":"string"},{"name":"description","type":"string","internalType":"string"},{"name":"seed","type":"tuple","internalType":"struct IGnarSeeder.Seed","components":[{"name":"background","type":"uint48","internalType":"uint48"},{"name":"body","type":"uint48","internalType":"uint48"},{"name":"accessory","type":"uint48","internalType":"uint48"},{"name":"head","type":"uint48","internalType":"uint48"},{"name":"glasses","type":"uint48","internalType":"uint48"}]}],"outputs":[{"name":"","type":"string","internalType":"string"}],"stateMutability":"view"},{"type":"function","name":"glasses","inputs":[{"name":"","type":"uint256","internalType":"uint256"}],"outputs":[{"name":"","type":"bytes","internalType":"bytes"}],"stateMutability":"view"},{"type":"function","name":"glassesCount","inputs":[],"outputs":[{"name":"","type":"uint256","internalType":"uint256"}],"stateMutability":"view"},{"type":"function","name":"headCount","inputs":[],"outputs":[{"name":"","type":"uint256","internalType":"uint256"}],"stateMutability":"view"},{"type":"function","name":"heads","inputs":[{"name":"","type":"uint256","internalType":"uint256"}],"outputs":[{"name":"","type":"bytes","internalType":"bytes"}],"stateMutability":"view"},{"type":"function","name":"isDataURIEnabled","inputs":[],"outputs":[{"name":"","type":"bool","internalType":"bool"}],"stateMutability":"view"},{"type":"function","name":"lockParts","inputs":[],"outputs":[],"stateMutability":"nonpayable"},{"type":"function","name":"owner","inputs":[],"outputs":[{"name":"","type":"address","internalType":"address"}],"stateMutability":"view"},{"type":"function","name":"palettes","inputs":[{"name":"","type":"uint8","internalType":"uint8"},{"name":"","type":"uint256","internalType":"uint256"}],"outputs":[{"name":"","type":"string","internalType":"string"}],"stateMutability":"view"},{"type":"function","name":"renounceOwnership","inputs":[],"outputs":[],"stateMutability":"nonpayable"},{"type":"function","name":"setBaseURI","inputs":[{"name":"_baseURI","type":"string","internalType":"string"}],"outputs":[],"stateMutability":"nonpayable"},{"type":"function","name":"toggleDataURIEnabled","inputs":[],"outputs":[],"stateMutability":"nonpayable"},{"type":"function","name":"tokenURI","inputs":[{"name":"tokenId","type":"uint256","internalType":"uint256"},{"name":"seed","type":"tuple","internalType":"struct IGnarSeeder.Seed","components":[{"name":"background","type":"uint48","internalType":"uint48"},{"name":"body","type":"uint48","internalType":"uint48"},{"name":"accessory","type":"uint48","internalType":"uint48"},{"name":"head","type":"uint48","internalType":"uint48"},{"name":"glasses","type":"uint48","internalType":"uint48"}]}],"outputs":[{"name":"","type":"string","internalType":"string"}],"stateMutability":"view"},{"type":"function","name":"transferOwnership","inputs":[{"name":"newOwner","type":"address","internalType":"address"}],"outputs":[],"stateMutability":"nonpayable"},{"type":"event","name":"BaseURIUpdated","inputs":[{"name":"baseURI","type":"string","indexed":false,"internalType":"string"}],"anonymous":false},{"type":"event","name":"DataURIToggled","inputs":[{"name":"enabled","type":"bool","indexed":false,"internalType":"bool"}],"anonymous":false},{"type":"event","name":"OwnershipTransferred","inputs":[{"name":"previousOwner","type":"address","indexed":true,"internalType":"address"},{"name":"newOwner","type":"address","indexed":true,"internalType":"address"}],"anonymous":false},{"type":"event","name":"PartsLocked","inputs":[],"anonymous":false},{"type":"error","name":"OwnableInvalidOwner","inputs":[{"name":"owner","type":"address","internalType":"address"}]},{"type":"error","name":"OwnableUnauthorizedAccount","inputs":[{"name":"account","type":"address","internalType":"address"}]}],"bytecode":{"object":"0x60806040526000805460ff60a81b1916600160a81b1790553480156200002457600080fd5b5033806200004c57604051631e4fbdf760e01b81526000600482015260240160405180910390fd5b62000057816200005e565b50620000ae565b600080546001600160a01b038381166001600160a01b0319831681178455604051919092169283917f8be0079c531659141344cd1fd0a4f28419497f9722a3daafe3b4186f6b6457e09190a35050565b612ea380620000be6000396000f3fe608060405234801561001057600080fd5b50600436106102275760003560e01c80636c0360eb1161013057806391b7916a116100b8578063ce2f4f531161007c578063ce2f4f531461047a578063dfe8478b1461048e578063eba8180614610496578063f2fde38b1461049e578063f9da8863146104b157600080fd5b806391b7916a146104265780639a79620514610439578063a51e41241461044c578063b982d1b91461045f578063cc2aa0911461047257600080fd5b80637ca94210116100ff5780637ca94210146103bf578063839644da146103d257806387db11bd146103e55780638a85a1e8146103f85780638da5cb5b1461040b57600080fd5b80636c0360eb14610378578063715018a614610380578063773b9771146103885780637a34aad3146103ac57600080fd5b806344cee73c116101b3578063598fa9da11610182578063598fa9da146103195780635a503f131461032c5780635e70664c1461033f578063615bda1014610352578063638ac2701461036557600080fd5b806344cee73c146102e35780634531c0a8146102f65780634daebac2146102fe57806355f804b31461030657600080fd5b80632715c90e116101fa5780632715c90e146102905780632a1d0769146102a35780632ea04300146102ab5780633cfdafd3146102be5780634479cef2146102d157600080fd5b80630475d8631461022c57806304bde4dd1461024157806317b552ab1461026a57806326da90e61461027d575b600080fd5b61023f61023a36600461216a565b6104c4565b005b61025461024f3660046121ab565b61054d565b6040516102619190612214565b60405180910390f35b61023f610278366004612268565b6105f9565b61025461028b366004612382565b610639565b61023f61029e366004612268565b610654565b61023f610690565b6102546102b9366004612557565b6106fe565b6102546102cc366004612573565b6107e2565b6007545b604051908152602001610261565b6102546102f13660046121ab565b61083b565b6003546102d5565b6005546102d5565b61023f610314366004612268565b61084b565b6102546103273660046125b1565b61089e565b61025461033a3660046121ab565b6108d6565b61023f61034d366004612268565b6108e6565b61023f610360366004612268565b610922565b610254610373366004612573565b61095e565b6102546109ca565b61023f6109d7565b60005461039c90600160a01b900460ff1681565b6040519015158152602001610261565b61023f6103ba36600461216a565b6109eb565b6102546103cd3660046121ab565b610a66565b61023f6103e03660046125db565b610a76565b6102546103f336600461262d565b610b0e565b61023f61040636600461216a565b610c3f565b6000546040516001600160a01b039091168152602001610261565b61023f61043436600461216a565b610cba565b61023f610447366004612268565b610d35565b61023f61045a36600461216a565b610d71565b61025461046d3660046121ab565b610dec565b6006546102d5565b60005461039c90600160a81b900460ff1681565b61023f610dfc565b6004546102d5565b61023f6104ac3660046126a1565b610e5a565b61023f6104bf3660046126ca565b610e98565b6104cc610edd565b600054600160a01b900460ff16156104ff5760405162461bcd60e51b81526004016104f69061270f565b60405180910390fd5b60005b818110156105485761053683838381811061051f5761051f612739565b9050602002810190610531919061274f565b610f0a565b80610540816127ab565b915050610502565b505050565b6003818154811061055d57600080fd5b906000526020600020016000915090508054610578906127c4565b80601f01602080910402602001604051908101604052809291908181526020018280546105a4906127c4565b80156105f15780601f106105c6576101008083540402835291602001916105f1565b820191906000526020600020905b8154815290600101906020018083116105d457829003601f168201915b505050505081565b610601610edd565b600054600160a01b900460ff161561062b5760405162461bcd60e51b81526004016104f69061270f565b6106358282610f0a565b5050565b606061064e610649836002610f47565b610f69565b92915050565b61065c610edd565b600054600160a01b900460ff16156106865760405162461bcd60e51b81526004016104f69061270f565b61063582826110cd565b610698610edd565b600054600160a01b900460ff16156106c25760405162461bcd60e51b81526004016104f69061270f565b6000805460ff60a01b1916600160a01b1781556040517f1680ee6d421f70ed6030d2fc4fcb50217a5dd617858d56562b119eca59172e579190a1565b6060600060405180604001604052806107168561110a565b81526020016003856000015165ffffffffffff168154811061073a5761073a612739565b90600052602060002001805461074f906127c4565b80601f016020809104026020016040519081016040528092919081815260200182805461077b906127c4565b80156107c85780601f1061079d576101008083540402835291602001916107c8565b820191906000526020600020905b8154815290600101906020018083116107ab57829003601f168201915b505050505081525090506107db81610639565b9392505050565b600054606090600160a81b900460ff161561080857610801838361095e565b905061064e565b600161081384611483565b6040516020016108249291906127fe565b604051602081830303815290604052905092915050565b6004818154811061055d57600080fd5b610853610edd565b60016108608284836128d3565b507f6741b2fc379fad678116fe3d4d4b9a1a184ab53ba36b86ad0fa66340b1ab41ad8282604051610892929190612993565b60405180910390a15050565b600260205281600052604060002081815481106108ba57600080fd5b90600052602060002001600091509150508054610578906127c4565b6006818154811061055d57600080fd5b6108ee610edd565b600054600160a01b900460ff16156109185760405162461bcd60e51b81526004016104f69061270f565b6106358282611515565b61092a610edd565b600054600160a01b900460ff16156109545760405162461bcd60e51b81526004016104f69061270f565b6106358282611552565b6060600061096b84611483565b905060008160405160200161098091906129c2565b60405160208183030381529060405290506000826040516020016109a491906129ef565b60405160208183030381529060405290506109c0828287610b0e565b9695505050505050565b60018054610578906127c4565b6109df610edd565b6109e9600061158f565b565b6109f3610edd565b600054600160a01b900460ff1615610a1d5760405162461bcd60e51b81526004016104f69061270f565b60005b8181101561054857610a54838383818110610a3d57610a3d612739565b9050602002810190610a4f919061274f565b6115df565b80610a5e816127ab565b915050610a20565b6005818154811061055d57600080fd5b610a7e610edd565b60ff831660009081526002602052604090205461010090610aa0908390612a43565b1115610abe5760405162461bcd60e51b81526004016104f690612a56565b60005b81811015610b0857610af684848484818110610adf57610adf612739565b9050602002810190610af1919061274f565b61161c565b80610b00816127ab565b915050610ac1565b50505050565b60606000610be86040518060400160405280610b298661110a565b81526020016003866000015165ffffffffffff1681548110610b4d57610b4d612739565b906000526020600020018054610b62906127c4565b80601f0160208091040260200160405190810160405280929190818152602001828054610b8e906127c4565b8015610bdb5780601f10610bb057610100808354040283529160200191610bdb565b820191906000526020600020905b815481529060010190602001808311610bbe57829003601f168201915b5050505050815250610639565b9050610c16858583604051602001610c0293929190612a97565b604051602081830303815290604052610f69565b604051602001610c269190612b5e565b6040516020818303038152906040529150509392505050565b610c47610edd565b600054600160a01b900460ff1615610c715760405162461bcd60e51b81526004016104f69061270f565b60005b8181101561054857610ca8838383818110610c9157610c91612739565b9050602002810190610ca3919061274f565b6110cd565b80610cb2816127ab565b915050610c74565b610cc2610edd565b600054600160a01b900460ff1615610cec5760405162461bcd60e51b81526004016104f69061270f565b60005b8181101561054857610d23838383818110610d0c57610d0c612739565b9050602002810190610d1e919061274f565b611515565b80610d2d816127ab565b915050610cef565b610d3d610edd565b600054600160a01b900460ff1615610d675760405162461bcd60e51b81526004016104f69061270f565b61063582826115df565b610d79610edd565b600054600160a01b900460ff1615610da35760405162461bcd60e51b81526004016104f69061270f565b60005b8181101561054857610dda838383818110610dc357610dc3612739565b9050602002810190610dd5919061274f565b611552565b80610de4816127ab565b915050610da6565b6007818154811061055d57600080fd5b610e04610edd565b6000805460ff60a81b198116600160a81b9182900460ff1615918202179091556040518181527f360c3d72ee193226275b842f85231c259c934e85459fed80fa68e502ffa9dbde9060200160405180910390a150565b610e62610edd565b6001600160a01b038116610e8c57604051631e4fbdf760e01b8152600060048201526024016104f6565b610e958161158f565b50565b610ea0610edd565b60ff8381166000908152600260205260409020541115610ed25760405162461bcd60e51b81526004016104f690612a56565b61054883838361161c565b6000546001600160a01b031633146109e95760405163118cdaa760e01b81523360048201526024016104f6565b600580546001810182556000919091527f036b6384b5eca791c62761152d0c79bb0604c104a5fb6f4eb0703f3154bb3db0016105488284836128d3565b60608260200151610f588484611649565b604051602001610824929190612ba3565b60608151600003610f8857505060408051602081019091526000815290565b6000604051806060016040528060408152602001612e2e6040913990506000600384516002610fb79190612a43565b610fc19190612cbe565b610fcc906004612ce0565b90506000610fdb826020612a43565b6001600160401b03811115610ff257610ff261229d565b6040519080825280601f01601f19166020018201604052801561101c576020820181803683370190505b509050818152600183018586518101602084015b81831015611088576003830192508251603f8160121c168501518253600182019150603f81600c1c168501518253600182019150603f8160061c168501518253600182019150603f8116850151825350600101611030565b6003895106600181146110a257600281146110b3576110bf565b613d3d60f01b6001198301526110bf565b603d60f81b6000198301525b509398975050505050505050565b600480546001810182556000919091527f8a35acfbc15ff81a39ae7d344fd709f28e8600b4aa8c65c6b64bfe7fe36bd19b016105488284836128d3565b60408051600480825260a0820190925260609160009190816020015b60608152602001906001900390816111265790505090506004836020015165ffffffffffff168154811061115c5761115c612739565b906000526020600020018054611171906127c4565b80601f016020809104026020016040519081016040528092919081815260200182805461119d906127c4565b80156111ea5780601f106111bf576101008083540402835291602001916111ea565b820191906000526020600020905b8154815290600101906020018083116111cd57829003601f168201915b50505050508160008151811061120257611202612739565b60200260200101819052506005836040015165ffffffffffff168154811061122c5761122c612739565b906000526020600020018054611241906127c4565b80601f016020809104026020016040519081016040528092919081815260200182805461126d906127c4565b80156112ba5780601f1061128f576101008083540402835291602001916112ba565b820191906000526020600020905b81548152906001019060200180831161129d57829003601f168201915b5050505050816001815181106112d2576112d2612739565b60200260200101819052506006836060015165ffffffffffff16815481106112fc576112fc612739565b906000526020600020018054611311906127c4565b80601f016020809104026020016040519081016040528092919081815260200182805461133d906127c4565b801561138a5780601f1061135f5761010080835404028352916020019161138a565b820191906000526020600020905b81548152906001019060200180831161136d57829003601f168201915b5050505050816002815181106113a2576113a2612739565b60200260200101819052506007836080015165ffffffffffff16815481106113cc576113cc612739565b9060005260206000200180546113e1906127c4565b80601f016020809104026020016040519081016040528092919081815260200182805461140d906127c4565b801561145a5780601f1061142f5761010080835404028352916020019161145a565b820191906000526020600020905b81548152906001019060200180831161143d57829003601f168201915b50505050508160038151811061147257611472612739565b602090810291909101015292915050565b6060600061149083611d11565b60010190506000816001600160401b038111156114af576114af61229d565b6040519080825280601f01601f1916602001820160405280156114d9576020820181803683370190505b5090508181016020015b600019016f181899199a1a9b1b9c1cb0b131b232b360811b600a86061a8153600a85049450846114e357509392505050565b600380546001810182556000919091527fc2575a0e9e593c00f959f8c92f12db2869c3395a3b0502d05e2516446f71f85b016105488284836128d3565b600780546001810182556000919091527fa66cc928b5edb82af9bd49922954155ab7b0942694bea4ce44661d9a8736c688016105488284836128d3565b600080546001600160a01b038381166001600160a01b0319831681178455604051919092169283917f8be0079c531659141344cd1fd0a4f28419497f9722a3daafe3b4186f6b6457e09190a35050565b600680546001810182556000919091527ff652222313e28459528d920b65115c16c04f3efc82aaedc97be59f3f377c0d3f016105488284836128d3565b60ff8316600090815260026020908152604082208054600181018255908352912001610b088284836128d3565b604080516104608101825260016104208201908152600360fc1b610440830152815281518083018352600280825261031360f41b602083810191909152808401929092528351808501855281815261032360f41b81840152838501528351808501855281815261033360f41b818401526060848101919091528451808601865282815261034360f41b8185015260808501528451808601865282815261035360f41b8185015260a08501528451808601865282815261036360f41b8185015260c08501528451808601865282815261037360f41b8185015260e08501528451808601865282815261038360f41b818501526101008501528451808601865291825261039360f41b828401526101208401919091528351808501855260038082526203130360ec1b82850152610140850191909152845180860186528181526203131360ec1b81850152610160850152845180860186528181526203132360ec1b81850152610180850152845180860186528181526203133360ec1b818501526101a0850152845180860186528181526203134360ec1b818501526101c0850152845180860186528181526203135360ec1b818501526101e0850152845180860186528181526203136360ec1b81850152610200850152845180860186528181526203137360ec1b81850152610220850152845180860186528181526203138360ec1b81850152610240850152845180860186528181526203139360ec1b81850152610260850152845180860186528181526203230360ec1b81850152610280850152845180860186528181526203231360ec1b818501526102a0850152845180860186528181526203232360ec1b818501526102c0850152845180860186528181526203233360ec1b818501526102e0850152845180860186528181526203234360ec1b81850152610300850152845180860186528181526203235360ec1b81850152610320850152845180860186528181526203236360ec1b81850152610340850152845180860186528181526203237360ec1b81850152610360850152845180860186528181526203238360ec1b81850152610380850152845180860186528181526203239360ec1b818501526103a0850152845180860186528181526203330360ec1b818501526103c0850152845180860186528181526203331360ec1b818501526103e0850152845180860190955284526203332360ec1b918401919091526104008201929092528160005b85515160ff82161015611d08576000611a1187600001518360ff1681518110611a0457611a04612739565b6020026020010151611de9565b805160ff908116600090815260208981526040822090840151606081015190519495509093908316921690611a446120f7565b606060005b876040015151811015611c9557600088604001518281518110611a6e57611a6e612739565b60200260200101519050806020015160ff16600014611c435780518c9060ff1660218110611a9e57611a9e612739565b6020020151848660108110611ab557611ab5612739565b60200201528b8760218110611acc57611acc612739565b602002015184611add876001612a43565b60108110611aed57611aed612739565b60200201528b8660218110611b0457611b04612739565b602002015184611b15876002612a43565b60108110611b2557611b25612739565b602002018190525087816020015160ff1681548110611b4657611b46612739565b906000526020600020018054611b5b906127c4565b80601f0160208091040260200160405190810160405280929190818152602001828054611b87906127c4565b8015611bd45780601f10611ba957610100808354040283529160200191611bd4565b820191906000526020600020905b815481529060010190602001808311611bb757829003601f168201915b505050505084866003611be79190612a43565b60108110611bf757611bf7612739565b6020020152611c07600486612a43565b945060108510611c435782611c1c868661202e565b604051602001611c2d929190612cf7565b6040516020818303038152906040529250600094505b8051611c529060ff1688612a43565b965088602001516020015160ff168703611c825760208901516060015160ff16965085611c7e816127ab565b9650505b5080611c8d816127ab565b915050611a49565b508215611cca5780611ca7848461202e565b604051602001611cb8929190612cf7565b60405160208183030381529060405290505b8881604051602001611cdd929190612cf7565b6040516020818303038152906040529850505050505050508080611d0090612d1d565b9150506119d9565b50949350505050565b60008072184f03e93ff9f4daa797ed6e38ed64bf6a1f0160401b8310611d505772184f03e93ff9f4daa797ed6e38ed64bf6a1f0160401b830492506040015b6d04ee2d6d415b85acef81000000008310611d7c576d04ee2d6d415b85acef8100000000830492506020015b662386f26fc100008310611d9a57662386f26fc10000830492506010015b6305f5e1008310611db2576305f5e100830492506008015b6127108310611dc657612710830492506004015b60648310611dd8576064830492506002015b600a831061064e5760010192915050565b611e2b60408051606080820183526000808352835160808101855281815260208181018390529481018290529182015290918201908152602001606081525090565b600082600081518110611e4057611e40612739565b602001015160f81c60f81b60f81c90506000604051806080016040528085600181518110611e7057611e70612739565b0160209081015160f81c8252865191019086906002908110611e9457611e94612739565b0160209081015160f81c8252865191019086906003908110611eb857611eb8612739565b0160209081015160f81c8252865191019086906004908110611edc57611edc612739565b016020015160f81c905284519091506000908190600290611eff90600590612d3c565b611f099190612cbe565b6001600160401b03811115611f2057611f2061229d565b604051908082528060200260200182016040528015611f6557816020015b6040805180820190915260008082526020820152815260200190600190039081611f3e5790505b50905060055b8651811015612004576040518060400160405280888381518110611f9157611f91612739565b0160209081015160f81c82520188611faa846001612a43565b81518110611fba57611fba612739565b016020015160f81c90528251839085908110611fd857611fd8612739565b60200260200101819052508280611fee906127ab565b9350611ffd9050600282612a43565b9050611f6b565b5060405180606001604052808560ff16815260200184815260200182815250945050505050919050565b60608060005b848110156120ef578184826010811061204f5761204f612739565b602002015185612060846001612a43565b6010811061207057612070612739565b602002015186612081856002612a43565b6010811061209157612091612739565b6020020151876120a2866003612a43565b601081106120b2576120b2612739565b60200201516040516020016120cb959493929190612d4f565b60408051601f1981840301815291905291506120e8600482612a43565b9050612034565b509392505050565b6040518061020001604052806010905b60608152602001906001900390816121075790505090565b60008083601f84011261213157600080fd5b5081356001600160401b0381111561214857600080fd5b6020830191508360208260051b850101111561216357600080fd5b9250929050565b6000806020838503121561217d57600080fd5b82356001600160401b0381111561219357600080fd5b61219f8582860161211f565b90969095509350505050565b6000602082840312156121bd57600080fd5b5035919050565b60005b838110156121df5781810151838201526020016121c7565b50506000910152565b600081518084526122008160208601602086016121c4565b601f01601f19169290920160200192915050565b6020815260006107db60208301846121e8565b60008083601f84011261223957600080fd5b5081356001600160401b0381111561225057600080fd5b60208301915083602082850101111561216357600080fd5b6000806020838503121561227b57600080fd5b82356001600160401b0381111561229157600080fd5b61219f85828601612227565b634e487b7160e01b600052604160045260246000fd5b604080519081016001600160401b03811182821017156122d5576122d561229d565b60405290565b604051601f8201601f191681016001600160401b03811182821017156123035761230361229d565b604052919050565b60006001600160401b038311156123245761232461229d565b612337601f8401601f19166020016122db565b905082815283838301111561234b57600080fd5b828260208301376000602084830101529392505050565b600082601f83011261237357600080fd5b6107db8383356020850161230b565b6000602080838503121561239557600080fd5b82356001600160401b03808211156123ac57600080fd5b818501915060408083880312156123c257600080fd5b6123ca6122b3565b8335838111156123d957600080fd5b8401601f810189136123ea57600080fd5b8035848111156123fc576123fc61229d565b8060051b61240b8882016122db565b918252828101880191888101908c84111561242557600080fd5b89850192505b83831015612475578235888111156124435760008081fd5b8501603f81018e136124555760008081fd5b6124658e8c8301358a840161230b565b835250918901919089019061242b565b8552505050508385013591508282111561248e57600080fd5b61249a88838601612362565b85820152809550505050505092915050565b803565ffffffffffff811681146124c257600080fd5b919050565b600060a082840312156124d957600080fd5b60405160a081018181106001600160401b03821117156124fb576124fb61229d565b60405290508061250a836124ac565b8152612518602084016124ac565b6020820152612529604084016124ac565b604082015261253a606084016124ac565b606082015261254b608084016124ac565b60808201525092915050565b600060a0828403121561256957600080fd5b6107db83836124c7565b60008060c0838503121561258657600080fd5b8235915061259784602085016124c7565b90509250929050565b803560ff811681146124c257600080fd5b600080604083850312156125c457600080fd5b6125cd836125a0565b946020939093013593505050565b6000806000604084860312156125f057600080fd5b6125f9846125a0565b925060208401356001600160401b0381111561261457600080fd5b6126208682870161211f565b9497909650939450505050565b600080600060e0848603121561264257600080fd5b83356001600160401b038082111561265957600080fd5b61266587838801612362565b9450602086013591508082111561267b57600080fd5b5061268886828701612362565b92505061269885604086016124c7565b90509250925092565b6000602082840312156126b357600080fd5b81356001600160a01b03811681146107db57600080fd5b6000806000604084860312156126df57600080fd5b6126e8846125a0565b925060208401356001600160401b0381111561270357600080fd5b61262086828701612227565b60208082526010908201526f14185c9d1cc8185c99481b1bd8dad95960821b604082015260600190565b634e487b7160e01b600052603260045260246000fd5b6000808335601e1984360301811261276657600080fd5b8301803591506001600160401b0382111561278057600080fd5b60200191503681900382131561216357600080fd5b634e487b7160e01b600052601160045260246000fd5b6000600182016127bd576127bd612795565b5060010190565b600181811c908216806127d857607f821691505b6020821081036127f857634e487b7160e01b600052602260045260246000fd5b50919050565b600080845461280c816127c4565b60018281168015612824576001811461283957612868565b60ff1984168752821515830287019450612868565b8860005260208060002060005b8581101561285f5781548a820152908401908201612846565b50505082870194505b50505050835161287c8183602088016121c4565b01949350505050565b601f82111561054857600081815260208120601f850160051c810160208610156128ac5750805b601f850160051c820191505b818110156128cb578281556001016128b8565b505050505050565b6001600160401b038311156128ea576128ea61229d565b6128fe836128f883546127c4565b83612885565b6000601f841160018114612932576000851561291a5750838201355b600019600387901b1c1916600186901b17835561298c565b600083815260209020601f19861690835b828110156129635786850135825560209485019460019092019101612943565b50868210156129805760001960f88860031b161c19848701351681555b505060018560011b0183555b5050505050565b60208152816020820152818360408301376000818301604090810191909152601f909201601f19160101919050565b64023b730b9160dd1b8152600082516129e28160058501602087016121c4565b9190910160050192915050565b64023b730b9160dd1b815260008251612a0f8160058501602087016121c4565b7f20626f746820736b6174657220616e64207465727261696e00000000000000006005939091019283015250601d01919050565b8082018082111561064e5761064e612795565b60208082526021908201527f50616c65747465732063616e206f6e6c7920686f6c642032353620636f6c6f726040820152607360f81b606082015260800190565b683d913730b6b2911d1160b91b81528351600090612abc8160098501602089016121c4565b71111610113232b9b1b934b83a34b7b7111d1160711b6009918401918201528451612aee81601b8401602089016121c4565b6c1116101134b6b0b3b2911d101160991b601b92909101918201527f646174613a696d6167652f7376672b786d6c3b6261736536342c00000000000060288201528351612b428160428401602088016121c4565b61227d60f01b6042929091019182015260440195945050505050565b7f646174613a6170706c69636174696f6e2f6a736f6e3b6261736536342c000000815260008251612b9681601d8501602087016121c4565b91909101601d0192915050565b7f3c7376672077696474683d2233323022206865696768743d223332302220766981527f6577426f783d2230203020333230203332302220786d6c6e733d22687474703a60208201527f2f2f7777772e77332e6f72672f323030302f737667222073686170652d72656e6040820152733232b934b7339e9131b934b9b822b233b2b9911f60611b60608201527f3c726563742077696474683d223130302522206865696768743d2231303025226074820152672066696c6c3d222360c01b609482015260008351612c7b81609c8501602088016121c4565b631110179f60e11b609c918401918201528351612c9f8160a08401602088016121c4565b651e17b9bb339f60d11b60a0929091019182015260a601949350505050565b600082612cdb57634e487b7160e01b600052601260045260246000fd5b500490565b808202811582820484141761064e5761064e612795565b60008351612d098184602088016121c4565b83519083019061287c8183602088016121c4565b600060ff821660ff8103612d3357612d33612795565b60010192915050565b8181038181111561064e5761064e612795565b60008651612d61818460208b016121c4565b6c1e3932b1ba103bb4b23a341e9160991b9083019081528651612d8b81600d840160208b016121c4565b7011103432b4b3b43a1e91189811103c1e9160791b600d92909101918201528551612dbd81601e840160208a016121c4565b6411103c9e9160d91b601e92909101918201528451612de38160238401602089016121c4565b68222066696c6c3d222360b81b602392909101918201528351612e0d81602c8401602088016121c4565b631110179f60e11b602c929091019182015260300197965050505050505056fe4142434445464748494a4b4c4d4e4f505152535455565758595a6162636465666768696a6b6c6d6e6f707172737475767778797a303132333435363738392b2fa264697066735822122030b969e6d2f094e085965f776a50078565630341c01340532e04fea02f7b07b264736f6c63430008140033","linkReferences":{}},"methodIdentifiers":{"_generateSVGImage((bytes[],string))":"26da90e6","accessories(uint256)":"7ca94210","accessoryCount()":"4daebac2","addAccessory(bytes)":"17b552ab","addBackground(string)":"5e70664c","addBody(bytes)":"2715c90e","addColorToPalette(uint8,string)":"f9da8863","addGlasses(bytes)":"615bda10","addHead(bytes)":"9a796205","addManyAccessories(bytes[])":"0475d863","addManyBackgrounds(string[])":"91b7916a","addManyBodies(bytes[])":"8a85a1e8","addManyColorsToPalette(uint8,string[])":"839644da","addManyGlasses(bytes[])":"a51e4124","addManyHeads(bytes[])":"7a34aad3","arePartsLocked()":"773b9771","backgroundCount()":"4531c0a8","backgrounds(uint256)":"04bde4dd","baseURI()":"6c0360eb","bodies(uint256)":"44cee73c","bodyCount()":"eba81806","dataURI(uint256,(uint48,uint48,uint48,uint48,uint48))":"638ac270","generateSVGImage((uint48,uint48,uint48,uint48,uint48))":"2ea04300","genericDataURI(string,string,(uint48,uint48,uint48,uint48,uint48))":"87db11bd","glasses(uint256)":"b982d1b9","glassesCount()":"4479cef2","headCount()":"cc2aa091","heads(uint256)":"5a503f13","isDataURIEnabled()":"ce2f4f53","lockParts()":"2a1d0769","owner()":"8da5cb5b","palettes(uint8,uint256)":"598fa9da","renounceOwnership()":"715018a6","setBaseURI(string)":"55f804b3","toggleDataURIEnabled()":"dfe8478b","tokenURI(uint256,(uint48,uint48,uint48,uint48,uint48))":"3cfdafd3","transferOwnership(address)":"f2fde38b"},"id":22}